S01A000044697374616E6365206D65617375726D65742E73726563EC
S11300000C9472000C948F000C948F000C948F004D
S11300100C948F000C948F000C948F000C948F0020
S11300200C948F000C948F000C948F000C948F0010
S11300300C948F000C948F000C948F000C948F0000
S11300400C948F000C948F000C948F000C948F00F0
S11300500C948F009D00B600CF00E8000001000161
S11300600001000100010001000100010001000184
S11300700001000100010001000100010001000174
S11300800001000100010001000100010001000164
S1130090000100019D00B600CF00E8000D0126011B
S11300A03F0158017001700170017001700170010D
S11300B070017001700170017001700170017001B4
S11300C070017001700170017001700170017001A4
S11300D07001700170017001700170010D01260141
S11300E03F01580111241FBECFE5D8E0DEBFCDBFCC
S11300F010E0A0E6B0E0E2EBF7E002C005900D925C
S1130100AA37B107D9F720E0AAE7B0E001C01D92F1
S1130110A238B207E1F70E94FB020C94D7030C94B7
S1130120000090E0FC01E154F109E432F10508F02B
S113013067C0E65DFF4F0C94C203413059F42AB303
S113014081E090E002C0880F991F6A95E2F7822B44
S11301508ABB08952AB381E090E002C0880F991FFA
S11301606A95E2F7809582238ABB0895413059F459
S113017027B381E090E002C0880F991F6A95E2F7E7
S1130180822B87BB089527B381E090E002C0880FDB
S1130190991F6A95E2F78095822387BB08954130C1
S11301A059F424B381E090E002C0880F991F6A9546
S11301B0E2F7822B84BB089524B381E090E002C06F
S11301C0880F991F6A95E2F78095822384BB08956E
S11301D0413059F421B381E090E002C0880F991FA7
S11301E06A95E2F7822B81BB089521B381E090E008
S11301F002C0880F991F6A95E2F78095822381BB1C
S1130200089590E0FC01E154F109E432F10508F0AD
S113021067C0E25BFF4F0C94C203413059F42BB327
S113022081E090E002C0880F991F6A95E2F7822B63
S11302308BBB08952BB381E090E002C0880F991F17
S11302406A95E2F7809582238BBB0895413059F477
S113025028B381E090E002C0880F991F6A95E2F705
S1130260822B88BB089528B381E090E002C0880FF8
S1130270991F6A95E2F78095822388BB08954130DF
S113028059F425B381E090E002C0880F991F6A9564
S1130290E2F7822B85BB089525B381E090E002C08C
S11302A0880F991F6A95E2F78095822385BB08958C
S11302B0413059F422B381E090E002C0880F991FC5
S11302C06A95E2F7822B82BB089522B381E090E025
S11302D002C0880F991F6A95E2F78095822382BB3A
S11302E0089541E062E081E40E9401018FEC97E00F
S11302F00197F1F700C0000040E062E081E40E9451
S113030001018FEC97E00197F1F700C00000089518
S1130310CF93C82F482F407150E055954795559578
S11303204795559547955595479563E081E40E9417
S113033001014C2F407250E05595479555954795CE
S113034055954795559547955595479564E081E4AE
S11303500E9401014C2F407450E0042E452F000CE4
S1130360441F550B000C441F551F65E081E40E9497
S113037001014C2F441F4427441F66E081E40E947E
S1130380010141E061E081E40E9401010E947101E8
S11303904C2F417063E081E40E9401014C2F4270B4
S11303A050E05595479564E081E40E9401014C2F8B
S11303B0447050E0559547955595479565E081E41F
S11303C00E940101C8704C2F50E0559547955595F2
S11303D047955595479566E081E40E94010141E007
S11303E061E081E40E9401010E9471018FEC97E0B9
S11303F00197F1F700C00000CF910895CF93C82F63
S1130400482F407150E0559547955595479555951A
S113041047955595479563E081E40E9401014C2F6F
S1130420407250E055954795559547955595479594
S1130430559547955595479564E081E40E940101DF
S11304404C2F407450E0042E452F000C441F550BD4
S1130450000C441F551F65E081E40E9401014C2FEC
S1130460441F4427441F66E081E40E94010140E0E8
S113047061E081E40E9401010E9471014C2F4170EE
S113048063E081E40E9401014C2F427050E05595D5
S1130490479564E081E40E9401014C2F447050E0D0
S11304A0559547955595479565E081E40E9401016E
S11304B0C8704C2F50E055954795559547955595DF
S11304C0479566E081E40E94010140E061E081E437
S11304D00E9401010E9471018FEC97E00197F1F7EE
S11304E000C00000CF9108952FEF81EE94E02150D9
S11304F080409040E1F700C0000041E063E081E407
S11305000E94910041E064E081E40E94910041E096
S113051065E081E40E94910041E066E081E40E948C
S1130520910041E061E081E40E94910041E062E0D9
S113053081E40E94910082E00E94FE018FE19EE42A
S11305400197F1F700C0000088E20E94FE018FECE1
S113055097E00197F1F700C000008CE00E94FE01D3
S11305608FEC97E00197F1F700C0000081E00E9452
S1130570FE018FE19EE40197F1F700C0000086E0E0
S11305800E94FE018FEC97E00197F1F700C0000094
S1130590089581E00E94FE0108959FEF980F923024
S11305A070F4662371F0613170F4813019F42FE72F
S11305B0260F0AC0823041F42FEB260F05C020E835
S11305C003C020E801C020E8822F0E94FE018FECC6
S11305D097E00197F1F700C000000895CF93DF93EF
S11305E0EC0103C00E948801219688818111FACF11
S11305F0DF91CF9108950E94740281B3806281BB20
S113060082B3806282BB2AE12A95F1F700C082B3EB
S11306108F7D82BB88B7806288BF81EC8EBD08B6AF
S113062005FEFDCF86B597B590937F0080937E003D
S113063088B7806288BF81E88EBD08B605FEFDCF0D
S113064086B597B590937B0080937A001EBC209169
S11306507A0030917B0080917E0090917F00281B6E
S1130660390B3093810020938000A8E2B7E80E9400
S1130670C80320E834E84EE150E00E94A003309320
S11306807D0020937C002135310580F00E94C90251
S113069080E690E00E94EE023FEF81EE94E031505C
S11306A080409040E1F700C00000AACF0E94C90238
S11306B08DE690E00E94EE026AE081E00E94CD02A5
S11306C020917C0030917D00ADECBCEC0E94C8030D
S11306D0969587959695879596958795805D0E94C2
S11306E0880140917C0050917D009A01ADECBCECF6
S11306F00E94C803969587959695879596958795B4
S11307009C01220F331F880F991F880F991F880F90
S1130710991F820F931F9A01281B390BC901805D11
S11307200E94880187E790E00E94EE023FEF81EE8D
S113073094E0315080409040E1F700C0000060CF69
S1130740A1E21A2EAA1BBB1BFD010DC0AA1FBB1FD1
S1130750EE1FFF1FA217B307E407F50720F0A21B43
S1130760B30BE40BF50B661F771F881F991F1A94B0
S113077069F760957095809590959B01AC01BD01DA
S1130780CF010895EE0FFF1F0590F491E02D099419
S1130790A29FB001B39FC001A39F700D811D1124BE
S11307A0911DB29F700D811D1124911D0895F8941F
S10507B0FFCF75
S11307B24F7574206F662072616E676500446973B9
S10D07C274616E63653D00636D0011
S9030000FC
